{
  "contractName": "Watchlist",
  "abi": [
    {
      "constant": true,
      "inputs": [],
      "name": "listCount",
      "outputs": [
        {
          "name": "",
          "type": "uint256"
        }
      ],
      "payable": false,
      "stateMutability": "view",
      "type": "function",
      "signature": "0x1b68d10d"
    },
    {
      "constant": true,
      "inputs": [
        {
          "name": "",
          "type": "uint256"
        }
      ],
      "name": "stocks",
      "outputs": [
        {
          "name": "id",
          "type": "uint256"
        },
        {
          "name": "ticker",
          "type": "string"
        },
        {
          "name": "active",
          "type": "bool"
        }
      ],
      "payable": false,
      "stateMutability": "view",
      "type": "function",
      "signature": "0x226b876c"
    },
    {
      "inputs": [],
      "payable": false,
      "stateMutability": "nonpayable",
      "type": "constructor",
      "signature": "constructor"
    },
    {
      "constant": false,
      "inputs": [
        {
          "name": "_content",
          "type": "string"
        }
      ],
      "name": "addStock",
      "outputs": [],
      "payable": false,
      "stateMutability": "nonpayable",
      "type": "function",
      "signature": "0xbba188ff"
    }
  ],
  "bytecode": "0x60806040526000805534801561001457600080fd5b5060408051808201909152600481527f54534c4100000000000000000000000000000000000000000000000000000000602082015261005b90640100000000610060810204565b610167565b60008054600190810180835560408051606081018252828152602080820187815282840186905293865284815291909420845181559151805192936100ad939085019291909101906100cc565b50604091909101516002909101805460ff191691151591909117905550565b828054600181600116156101000203166002900490600052602060002090601f016020900481019282601f1061010d57805160ff191683800117855561013a565b8280016001018555821561013a579182015b8281111561013a57825182559160200191906001019061011f565b5061014692915061014a565b5090565b61016491905b808211156101465760008155600101610150565b90565b6103d3806101766000396000f3fe6080604052600436106100565763ffffffff7c01000000000000000000000000000000000000000000000000000000006000350416631b68d10d811461005b578063226b876c14610082578063bba188ff14610136575b600080fd5b34801561006757600080fd5b506100706101eb565b60408051918252519081900360200190f35b34801561008e57600080fd5b506100ac600480360360208110156100a557600080fd5b50356101f1565b604051808481526020018060200183151515158152602001828103825284818151815260200191508051906020019080838360005b838110156100f95781810151838201526020016100e1565b50505050905090810190601f1680156101265780820380516001836020036101000a031916815260200191505b5094505050505060405180910390f35b34801561014257600080fd5b506101e96004803603602081101561015957600080fd5b81019060208101813564010000000081111561017457600080fd5b82018360208201111561018657600080fd5b803590602001918460018302840111640100000000831117156101a857600080fd5b91908080601f0160208091040260200160405190810160405280939291908181526020018383808284376000920191909152509295506102a0945050505050565b005b60005481565b600160208181526000928352604092839020805481840180548651600296821615610100026000190190911695909504601f8101859004850286018501909652858552909491939290919083018282801561028d5780601f106102625761010080835404028352916020019161028d565b820191906000526020600020905b81548152906001019060200180831161027057829003601f168201915b5050506002909301549192505060ff1683565b60008054600190810180835560408051606081018252828152602080820187815282840186905293865284815291909420845181559151805192936102ed9390850192919091019061030c565b50604091909101516002909101805460ff191691151591909117905550565b828054600181600116156101000203166002900490600052602060002090601f016020900481019282601f1061034d57805160ff191683800117855561037a565b8280016001018555821561037a579182015b8281111561037a57825182559160200191906001019061035f565b5061038692915061038a565b5090565b6103a491905b808211156103865760008155600101610390565b9056fea165627a7a72305820b453ea77c017b5169118c2fc2a95b97442d25499b39be847dae43892ddf133b40029",
  "source": "pragma solidity ^0.5.0;\r\n\r\ncontract Watchlist {\r\n    uint public listCount = 0;\r\n\r\n\r\n    struct Stock {\r\n        uint id;\r\n        string ticker;\r\n        bool active;\r\n    }\r\n\r\n    mapping(uint => Stock) public stocks;\r\n\r\n    // init that runs on deployment\r\n    constructor() public {\r\n        addStock(\"TSLA\"); // Adding sample data to the watchlist\r\n    }\r\n\r\n\r\n    function addStock(string memory _content) public {\r\n        listCount ++;\r\n        stocks[listCount] = Stock(listCount, _content, true);\r\n    }\r\n\r\n}",
  "sourcePath": "C:/Users/james/Desktop/eth-watchlist/contracts/Watchlist.sol",
  "compiler": {
    "name": "solc",
    "version": "0.5.0+commit.1d4f565a.Emscripten.clang"
  },
  "schemaVersion": "3.0.1",
  "updatedAt": "2021-01-11T03:27:42.279Z",
  "devdoc": {
    "methods": {}
  },
  "userdoc": {
    "methods": {}
  }
}