{
  "contractName": "Watchlist",
  "abi": [
    {
      "constant": true,
      "inputs": [],
      "name": "listCount",
      "outputs": [
        {
          "name": "",
          "type": "uint256"
        }
      ],
      "payable": false,
      "stateMutability": "view",
      "type": "function"
    }
  ],
  "bytecode": "0x608060405260008055348015601357600080fd5b50609e806100226000396000f3fe608060405260043610603f576000357c0100000000000000000000000000000000000000000000000000000000900463ffffffff1680631b68d10d146044575b600080fd5b348015604f57600080fd5b506056606c565b6040518082815260200191505060405180910390f35b6000548156fea165627a7a723058204fad34d86e04775935763b85e51fc431721413aab1d4728cc4786994207408870029",
  "source": "pragma solidity ^0.5.0;\r\n\r\ncontract Watchlist {\r\n    uint public listCount = 0;\r\n\r\n}",
  "sourcePath": "C:/Users/james/Desktop/eth-watchlist/contracts/Watchlist.sol",
  "compiler": {
    "name": "solc",
    "version": "0.5.0+commit.1d4f565a.Emscripten.clang"
  },
  "schemaVersion": "3.0.1",
  "updatedAt": "2021-01-11T02:58:17.187Z",
  "devdoc": {
    "methods": {}
  },
  "userdoc": {
    "methods": {}
  }
}