{
  "contractName": "Watchlist",
  "abi": [
    {
      "constant": true,
      "inputs": [],
      "name": "listCount",
      "outputs": [
        {
          "name": "",
          "type": "uint256"
        }
      ],
      "payable": false,
      "stateMutability": "view",
      "type": "function",
      "signature": "0x1b68d10d"
    },
    {
      "constant": true,
      "inputs": [
        {
          "name": "",
          "type": "uint256"
        }
      ],
      "name": "stocks",
      "outputs": [
        {
          "name": "id",
          "type": "uint256"
        },
        {
          "name": "ticker",
          "type": "string"
        },
        {
          "name": "active",
          "type": "bool"
        }
      ],
      "payable": false,
      "stateMutability": "view",
      "type": "function",
      "signature": "0x226b876c"
    },
    {
      "inputs": [],
      "payable": false,
      "stateMutability": "nonpayable",
      "type": "constructor",
      "signature": "constructor"
    },
    {
      "anonymous": false,
      "inputs": [
        {
          "indexed": false,
          "name": "id",
          "type": "uint256"
        },
        {
          "indexed": false,
          "name": "content",
          "type": "string"
        },
        {
          "indexed": false,
          "name": "completed",
          "type": "bool"
        }
      ],
      "name": "StockCreated",
      "type": "event",
      "signature": "0x5e4c727af47d5d1c0e7e6171730ef0d1b7a10fda045ad0c5403cc767e99cd784"
    },
    {
      "anonymous": false,
      "inputs": [
        {
          "indexed": false,
          "name": "id",
          "type": "uint256"
        },
        {
          "indexed": false,
          "name": "active",
          "type": "bool"
        }
      ],
      "name": "StockCompleted",
      "type": "event",
      "signature": "0xf05640d97b0860d70c3ee0331a2266b46dd21a17bc0be5ea677414b388a78ac5"
    },
    {
      "constant": false,
      "inputs": [
        {
          "name": "_content",
          "type": "string"
        }
      ],
      "name": "addStock",
      "outputs": [],
      "payable": false,
      "stateMutability": "nonpayable",
      "type": "function",
      "signature": "0xbba188ff"
    },
    {
      "constant": false,
      "inputs": [
        {
          "name": "_id",
          "type": "uint256"
        }
      ],
      "name": "toggleCompleted",
      "outputs": [],
      "payable": false,
      "stateMutability": "nonpayable",
      "type": "function",
      "signature": "0x455f5024"
    }
  ],
  "bytecode": "0x60806040526000805534801561001457600080fd5b5060408051808201909152600481527f54534c4100000000000000000000000000000000000000000000000000000000602082015261005b90640100000000610060810204565b61021f565b60008054600190810180835560408051606081018252828152602080820187815282840186905293865284815291909420845181559151805192936100ad93908501929190910190610184565b5060408201518160020160006101000a81548160ff0219169083151502179055509050507f5e4c727af47d5d1c0e7e6171730ef0d1b7a10fda045ad0c5403cc767e99cd784600054826000604051808481526020018060200183151515158152602001828103825284818151815260200191508051906020019080838360005b8381101561014557818101518382015260200161012d565b50505050905090810190601f1680156101725780820380516001836020036101000a031916815260200191505b5094505050505060405180910390a150565b828054600181600116156101000203166002900490600052602060002090601f016020900481019282601f106101c557805160ff19168380011785556101f2565b828001600101855582156101f2579182015b828111156101f25782518255916020019190600101906101d7565b506101fe929150610202565b5090565b61021c91905b808211156101fe5760008155600101610208565b90565b6106448061022e6000396000f3fe6080604052600436106100615763ffffffff7c01000000000000000000000000000000000000000000000000000000006000350416631b68d10d8114610066578063226b876c1461008d578063455f502414610141578063bba188ff1461016d575b600080fd5b34801561007257600080fd5b5061007b610220565b60408051918252519081900360200190f35b34801561009957600080fd5b506100b7600480360360208110156100b057600080fd5b5035610226565b604051808481526020018060200183151515158152602001828103825284818151815260200191508051906020019080838360005b838110156101045781810151838201526020016100ec565b50505050905090810190601f1680156101315780820380516001836020036101000a031916815260200191505b5094505050505060405180910390f35b34801561014d57600080fd5b5061016b6004803603602081101561016457600080fd5b50356102d5565b005b34801561017957600080fd5b5061016b6004803603602081101561019057600080fd5b8101906020810181356401000000008111156101ab57600080fd5b8201836020820111156101bd57600080fd5b803590602001918460018302840111640100000000831117156101df57600080fd5b91908080601f016020809104026020016040519081016040528093929190818152602001838380828437600092019190915250929550610435945050505050565b60005481565b600160208181526000928352604092839020805481840180548651600296821615610100026000190190911695909504601f810185900485028601850190965285855290949193929091908301828280156102c25780601f10610297576101008083540402835291602001916102c2565b820191906000526020600020905b8154815290600101906020018083116102a557829003601f168201915b5050506002909301549192505060ff1683565b6102dd610559565b60008281526001602081815260409283902083516060810185528154815281840180548651600296821615610100026000190190911695909504601f810185900485028601850190965285855290949193858401939092908301828280156103865780601f1061035b57610100808354040283529160200191610386565b820191906000526020600020905b81548152906001019060200180831161036957829003601f168201915b50505091835250506002919091015460ff161515602091820152604080830180511590526000858152600180845291902083518155838301518051949550859491936103d79385019291019061057d565b50604091820151600291909101805460ff1916911515919091179055818101518151848152901515602082015281517ff05640d97b0860d70c3ee0331a2266b46dd21a17bc0be5ea677414b388a78ac5929181900390910190a15050565b60008054600190810180835560408051606081018252828152602080820187815282840186905293865284815291909420845181559151805192936104829390850192919091019061057d565b5060408201518160020160006101000a81548160ff0219169083151502179055509050507f5e4c727af47d5d1c0e7e6171730ef0d1b7a10fda045ad0c5403cc767e99cd784600054826000604051808481526020018060200183151515158152602001828103825284818151815260200191508051906020019080838360005b8381101561051a578181015183820152602001610502565b50505050905090810190601f1680156105475780820380516001836020036101000a031916815260200191505b5094505050505060405180910390a150565b60606040519081016040528060008152602001606081526020016000151581525090565b828054600181600116156101000203166002900490600052602060002090601f016020900481019282601f106105be57805160ff19168380011785556105eb565b828001600101855582156105eb579182015b828111156105eb5782518255916020019190600101906105d0565b506105f79291506105fb565b5090565b61061591905b808211156105f75760008155600101610601565b9056fea165627a7a72305820fa17ac8811ee27a524f25147ac113bc6febb984e0f601fa3bc88f269c5f5b1240029",
  "source": "pragma solidity ^0.5.0;\r\n\r\ncontract Watchlist {\r\n    uint public listCount = 0;\r\n\r\n\r\n    struct Stock {\r\n        uint id;\r\n        string ticker;\r\n        bool active;\r\n    }\r\n\r\n    mapping(uint => Stock) public stocks;\r\n\r\n    event StockCreated(\r\n        uint id,\r\n        string content,\r\n        bool completed\r\n    );\r\n\r\n    event StockCompleted(\r\n        uint id,\r\n        bool active\r\n    );\r\n\r\n\r\n    // init that runs on deployment\r\n    constructor() public {\r\n        addStock(\"TSLA\"); // Adding sample data to the watchlist\r\n    }\r\n\r\n\r\n    function addStock(string memory _content) public {\r\n        listCount ++;\r\n        stocks[listCount] = Stock(listCount, _content, true);\r\n        emit StockCreated(listCount, _content, false);\r\n    }\r\n\r\n    function toggleCompleted(uint _id) public {\r\n        Stock memory _stock = stocks[_id];\r\n        _stock.active = !_stock.active;\r\n        stocks[_id] = _stock;\r\n        emit StockCompleted(_id, _stock.active);\r\n  }\r\n\r\n}\r\n\r\n//flow --> truffle compile --> truffle migrate --> ",
  "sourcePath": "C:/Users/james/Desktop/eth-watchlist/contracts/Watchlist.sol",
  "compiler": {
    "name": "solc",
    "version": "0.5.0+commit.1d4f565a.Emscripten.clang"
  },
  "schemaVersion": "3.0.1",
  "updatedAt": "2021-01-11T04:08:40.440Z",
  "devdoc": {
    "methods": {}
  },
  "userdoc": {
    "methods": {}
  }
}